:020000040800F2
:10000000080D0020410C0008B1020008B3020008EE
:10001000B7020008BB020008BF0200080000000091
:10002000000000000000000000000000C302000803
:10003000C502000800000000C7020008C90200084D
:100040005B0C00085B0C00085B0C00085B0C0008F4
:100050005B0C00085B0C00085B0C00085B0C0008E4
:100060005B0C00085B0C00085B0C00085B0C0008D4
:100070005B0C00085B0C00085B0C00085B0C0008C4
:100080005B0C00085B0C00085B0C00085B0C0008B4
:100090005B0C00085B0C00085B0C00085B0C0008A4
:1000A0005B0C00085B0C00085B0C00085B0C000894
:1000B0005B0C00085B0C00085B0C00085B0C000884
:1000C0005B0C00085B0C00085B0C00085B0C000874
:1000D0005B0C0008950600085B0C00084509000849
:1000E0005B0C00085B0C00085B0C00085B0C000854
:1000F0005B0C00085B0C00085B0C00085B0C000844
:100100005B0C00085B0C00085B0C00085B0C000833
:100110005B0C00085B0C00085B0C00085B0C000823
:100120005B0C00085B0C00085B0C00085B0C000813
:1001300000F002F800F06AF80AA090E8000C82448F
:100140008344AAF10107DA4501D100F05FF8AFF26C
:10015000090EBAE80F0013F0010F18BFFB1A43F0A5
:1001600001031847B8370000D83700000A444FF0A1
:10017000000C10F8013B13F0070408BF10F8014B06
:100180001D1108BF10F8015B641E05D010F8016B4B
:10019000641E01F8016BF9D113F0080F1EBF10F8AF
:1001A000014BAD1C0C1B09D16D1E58BF01F801CBD2
:1001B000FAD505E014F8016B01F8016B6D1EF9D555
:1001C0009142D6D37047000000230024002500266A
:1001D000103A28BF78C1FBD8520728BF30C148BFAA
:1001E0000B607047642902F0DB83732902F00F86ED
:1001F000002070471FB59DE8030003F04DF902F0A1
:1002000053FE1FBD10B502F0B8FE10BD02F01BFF7B
:100210001146FFF7EFFF00F024F803F00BF903B4E9
:10022000FFF7F0FF03BC03F0A9FA000086B000BF9F
:10023000142101A802F038FD40F25B7114A000F017
:100240005AFC01F067FC0BE01748006808B9012070
:1002500000E00020144908604FF47A7000F08BF938
:10026000F2E700BF00F04AF94FF4A06001F08CFA09
:100270004FF4164000F0C2F90C4801684FF41640E4
:10028000884700F013F9FFF7D1FF00207047000006
:100290006D7174742D322E6F6D6E69766F6C746132
:1002A00069632E636F6D0000A001214218000020D9
:1002B000704700BFFEE700BFFEE700BFFEE700BFDC
:1002C000FEE7704770477047704700000CB500208C
:1002D000019000906C48006840F480306A490860E2
:1002E00000BF6948006800F4003000900198401C8D
:1002F0000190009818B90198B0F5A06FF1D162484B
:10030000006800F4003010B10120009001E00020EE
:1003100000900098012843D15C48006840F010002C
:100320005A4908600846006820F003000860084643
:10033000006840F002000860534840685249486035
:100340000846406848600846406840F4806048605D
:100350000846406820F47C1048600846406840F435
:10036000E81048600846006840F08070086000BFF0
:100370004548006800F000700028F9D04248406805
:1003800020F00300404948600846406840F0020001
:10039000486000BF3C48406800F00C000828F9D1D4
:1003A0000CBD10B5FFF792FF10BD10B536480068C0
:1003B00040F001003449086008464068344908406C
:1003C0003149486008460068324908402E490860B3
:1003D0000846006820F4802008600846406820F441
:1003E000FE0048604FF41F008860FFF7DAFF4FF00F
:1003F00000602949086010BD10B5002100200022CE
:10040000214B5B6803F00C0121B1042906D00829B7
:1004100028D107E0214B224C236027E01F4B204CC2
:10042000236023E0184B5B6803F47010164B5B6885
:1004300003F48032022303EB904022B9194B43436B
:10044000174C23600DE0104B5B6803F4003323B1BD
:10045000144B4343124C236003E0104B4343104CB6
:10046000236003E00D4B0E4C236000BF00BF064B22
:100470005B68C3F303130C4CE15C094B1B68CB4076
:10048000074C236010BD0000001002400020024015
:100490000000FFF8FFFFF6FE08ED00E000127A0012
:1004A0000000002000093D000400002008B50121E3
:1004B000242000F001FF4FF48070ADF80000102000
:1004C0008DF8030003208DF802006946094800F00A
:1004D00037FC4FF48071074800F0DFFC0420ADF8D2
:1004E00000006946044800F02BFC0421024800F09B
:1004F000D4FC08BD000801400014014010B56FF0A5
:10050000040001F090F92F4800682F49B0FBF1F08A
:100510002E4908700846007800EB4001C1EBC0107E
:100520004FF6FF7101EAC0002949088010BD01465D
:10053000264A12784A434FF0E0235A6100229A611A
:100540001A46126942F001021A6100BF4FF0E02220
:10055000106900F001021AB100F48032002AF5D0CF
:100560004FF0E022126922F001024FF0E0231A61FD
:1005700000229A61704710B502461201144B1B8885
:1005800053434FF0E02463610023A36123461B69BA
:1005900043F00103236100BF4FF0E023196901F02C
:1005A00001031BB101F48033002BF5D04FF0E023A1
:1005B0001B6923F001034FF0E02423610023A361B2
:1005C00010BD00000000002000127A00140000207E
:1005D0001600002030B5034600200CE000BF314C6F
:1005E000248804F04004002CF9D01C5C2D4D2D1DF6
:1005F0002C80441CA0B28842F0DB30BD10B586B020
:100600000446012144F2040000F056FE4FF400704D
:10061000ADF8140003208DF8160018208DF817008F
:1006200005A9214800F08CFB4FF48060ADF8140060
:1006300004208DF8170005A91B4800F081FB252038
:100640008DF8000003208DF801008DF802000120D4
:100650008DF80300684601F09CF801940020ADF885
:100660000800ADF80A00ADF80C00ADF810000C2041
:10067000ADF80E0001A90B4800F0C5FE012240F2C2
:100680002551084800F057FF0121064800F047FFB8
:1006900006B010BD10B540F22551024801F030F807
:1006A00010BD0000003801400008014072B6002073
:1006B000E349C8818881088262B67047002072B61B
:1006C000DF498989C9B1DE49CA892031885CFF22A6
:1006D0002039CB892031CA542039C989491CD84ACC
:1006E000D18111468989491E91811146C989B1F587
:1006F000806F04DB0021D18101E04FF4004062B63D
:100700007047704770B5054600240026284602F061
:100710001CFA064600BF0BE000BFCA48008800F084
:1007200040000028F9D0285DC649091D0880641CD6
:10073000B442F1DB70BD30B5034600200CE000BFD1
:10074000C04C248804F04004002CF9D01C5CBD4D42
:100750002D1D2C80441CA0B28842F0DB30BD30B58A
:100760000346002010E000BFB74C248804F040048A
:10077000002CF9D01C5CB44D2D1D2C801C5CB14D9F
:100780002D1D2C80441CA0B28842ECDB30BD2DE92D
:10079000F04706460C4617460025A946A84619E02C
:1007A0000CE00120FFF7E7FE08F101001FFA80F8D6
:1007B000B84503DD4FF0FF30BDE8F087A0488089E1
:1007C0000028EED09E4948698047814606F805908A
:1007D000681C85B2A542E3DB2046EDE72DE9F04732
:1007E00005460F4690464FF000093FB19449C8694D
:1007F00080471E219248203002F056FA4046FFF70B
:10080000BAFE14228E492031904802F008FA0020E6
:1008100006E08E49095C11B901218C4A1154401C33
:100820001428F6DB00208949C8740DB9BDE8F087AB
:100830002946864802F077F98146B9F1000F01D1C7
:100840000020F3E78148A0EB0904002C00DA6442A1
:10085000284602F07AF906467948C089A119084469
:100860007749C88108468089A119401A744988814E
:100870000120DBE72DE9F84305460C4691460026AA
:10088000002700200090224671A1704802F048F82D
:1008900080461FFA88F16A48112243686B489847DE
:1008A000009830B94FF4FA7200216DA0FFF796FF5F
:1008B0000090009830B94FF4FA72002168A0FFF759
:1008C0008DFF0090009830B94FF4FA72002164A0B7
:1008D000FFF784FF0090009830B94FF4FA720021BE
:1008E0005FA0FFF77BFF0090009810B90020BDE8E3
:1008F000F88353484FF47A72214643682846984754
:100900000646002000903227009828B96422012171
:1009100054A0FFF763FF009009E0009830B964220B
:10092000002150A0FFF75AFF009000E003E0381EBE
:10093000A7F10107F1D100BF009808B90020D6E760
:100940003046D4E710B540F225513F4800F0D8FEBC
:1009500018B33D48001D0088C4B23A48001D048009
:100960003748008AB0F5806F02DB002034490882E6
:100970003348018A203044542038008A401C3049D2
:10098000088208468089401C888108468089B0F525
:10099000806F02DD4FF48060888110BD10B586B095
:1009A00004460121082000F087FC0121880400F0A2
:1009B00090FC4FF48060ADF8140003208DF8160011
:1009C00018208DF8170005A9294800F0B9F94FF44F
:1009D0000060ADF8140004208DF8170005A9244824
:1009E00000F0AEF901940020ADF810000C20ADF835
:1009F0000E000020ADF80C00ADF80A00ADF80800BC
:100A000001A9114800F0FFFC01210F4800F087FD0B
:100A1000012240F225510C4800F08DFD27208DF871
:100A2000000001208DF8030000208DF801008DF8F2
:100A30000200684600F0ADFE06B010BD7047000031
:100A4000180000200038014000480040C004002089
:100A500041542B43495053454E443D25640D0A00F3
:100A60003E00000053454E44204F4B0D0A0000004D
:100A7000000C014010B504462046FFF77CFD10BD78
:100A80002DE9F04705460E4617464FF0000AD146BD
:100A90000024A84600BF3E49C8698047404602F08E
:100AA00054F81FFA80F93A484FF47A72494643687D
:100AB000404698472CB93A4601213046FFF78EFE52
:100AC000C4B22CB93A4601213046FFF787FEC4B2C2
:100AD0002CB93A4601213046FFF780FEC4B22CB94A
:100AE0003A4601213046FFF779FEC4B200BF01202B
:100AF000BDE8F087704770B504460D464FF4FA72B2
:100B000024A125A0FFF7BCFF642225A125A0FFF7A3
:100B1000B7FF4FF4FA721FA126A0FFF7B1FF4FF401
:100B2000FA721CA127A0FFF7ABFF4FF4FA7219A1CC
:100B300027A0FFF7A5FF4FF4967216A127A0FFF795
:100B40009FFF4FF4967213A127A0FFF799FF4FF470
:100B5000967210A127A0FFF793FF4FF496720DA194
:100B600029A0FFF78DFF4FF4FA720AA129A0FFF721
:100B700087FF64222AA12BA0FFF782FF4FF47A722D
:100B80002BA12E480068FFF77BFF012070BD0000FD
:100B9000180000204F4B0000415445300D0A000062
:100BA0000000000041542B434950434C4F53450D26
:100BB0000A00000041542B434950534855540D0A34
:100BC0000000000041542B4350494E3F0D0A0000E5
:100BD00041542B4353510D0A0000000041542B4354
:100BE0005245473F0D0A000041542B43474154549E
:100BF0003F0D0A0041542B435354543D22434D4E64
:100C00004554220D0A00000041542B435354543FD5
:100C10000D0A000041542B43494943520D0A00007C
:100C20002E00000041542B43494653520D0A000048
:100C3000434F4E4E454354204F4B00003804002094
:100C40000948804709480047FEE7FEE7FEE7FEE760
:100C5000FEE7FEE7FEE7FEE7FEE7FEE7044805499C
:100C6000054A064B70470000AB030008310100083D
:100C700008070020080D00200809002008090020AE
:100C800010B50446CC48844208D10121042000F06C
:100C90002DFB0021042000F029FB46E0C7488442D8
:100CA00008D10121082000F021FB0021082000F0DC
:100CB0001DFB3AE0C248844208D10121102000F017
:100CC00015FB0021102000F011FB2EE0BD488442EE
:100CD00008D10121202000F009FB0021202000F094
:100CE00005FB22E0B848844208D10121402000F0F1
:100CF000FDFA0021402000F0F9FA16E0B3488442E2
:100D000008D10121802000F0F1FA0021802000F0BC
:100D1000EDFA0AE0AE48844207D10121801500F0C7
:100D2000E5FA0021A01500F0E1FA10BD10B501218F
:100D3000084600F0DBFA0021012000F0D7FA10BDD0
:100D40002DE9F04102460025002600200023002462
:100D5000002791F803C00CF00F0591F803C00CF0C8
:100D6000100CBCF1000F03D091F802C04CEA05054D
:100D700091F800C0BCF1000F31D0146800202BE0C6
:100D80004FF0010C0CFA00F3B1F800C00CEA0306B6
:100D90009E4220D183004FF00F0C0CFA03F7BC43A6
:100DA00005FA03FC4CEA040491F803C0BCF1280FD7
:100DB00006D14FF0010C0CFA00FCC2F814C00AE096
:100DC00091F803C0BCF1480F05D14FF0010C0CFAAB
:100DD00000FCC2F810C0401C0828D1D31460B1F840
:100DE00000C0BCF1FF0F34DD546800202EE000F19C
:100DF000080C4FF0010808FA0CF3B1F800C00CEA37
:100E000003069E4221D183004FF00F0C0CFA03F72A
:100E1000BC4305FA03FC4CEA040491F803C0BCF19E
:100E2000280F05D100F1080C08FA0CF8C2F814805C
:100E300091F803C0BCF1480F07D100F1080C4FF046
:100E4000010808FA0CF8C2F81080401C0828CED31C
:100E50005460BDE8F0814FF6FF710180022181707E
:100E60000421C17070470246002093680B400BB10B
:100E7000012000E0002070470146886880B270477A
:100E800002460020D3680B400BB1012000E0002097
:100E900070470146C86880B2704701617047416180
:100EA00070470AB1016100E041617047C16070475D
:100EB0004FF480320A438261816182618269826972
:100EC000704702460020434B18684FF68073184065
:100ED00040EA021008433F4B186070473E49C86122
:100EE0007047F0B50A46002300240021002500F0D9
:100EF0000046B6F1004F02D1364EF16901E0354EA1
:100F00007168C0F3034583B200F44016B6F5401F84
:100F100008D121F070612F4E766826F070662D4F53
:100F20007E6012E000F48016B6F5801F06D103261D
:100F300006FA05F4A14341F0706106E0460D360162
:100F400003FA06F6B14341F0706122B1460D360155
:100F500003FA06F6314300F00046B6F1004F02D125
:100F60001C4EF16101E01B4E7160F0BD30B50022F6
:100F70008B071C0F0F2303FA04F2164B08338C1057
:100F800053F824309343134C08348D1044F8253023
:100F900023468C1053F824308C07240F00FA04F4F5
:100FA00023430C4C08348D1044F8253030BD0A49D9
:100FB000DC3108607047000000080140000C01406F
:100FC000001001400014014000180140001C0140C5
:100FD000002001400000014000002042DF4800687E
:100FE00040F00100DD49086008464068DC490840DF
:100FF000DA49486008460068DA490840D74908607D
:101000000846006820F4802008600846406820F404
:10101000FE0048604FF41F0088607047CF490968A0
:1010200021F48031CD4A11601146096821F48021F4
:101030001160B0F5803F03D0B0F5802F0ED106E0EF
:10104000C649096841F48031C44A116007E0C349C8
:10105000096841F4A021C14A116000E000BF00BF4F
:10106000704710B501460022002300204A11012AD2
:1010700002D1BA4C236806E0022A02D1B74C236A97
:1010800001E0B64C636A01F01F02012494401C4049
:101090000CB1012000E0002010BD38B50020009008
:1010A0000024002500BF3120FFF7DBFF0546009834
:1010B000401C00900098B0F5A06F01D0002DF2D038
:1010C0003120FFF7CEFF08B1012400E000242046C4
:1010D00038BD01460020A14A106820F0F80040EA1F
:1010E000C10010607047A0490860704702460020A8
:1010F0009A4B586820F47C1042EA01031843974B3E
:101100005860704798490866704701460020934A26
:10111000506820F003000843506070478F484068D3
:1011200000F00C007047014600208C4A506820F007
:10113000F00008435060704701460020874A50681D
:1011400020F4E06008435060704701460020834A65
:10115000506820F4605040EAC1005060704729B1E7
:101160007E4A527A02437D4B5A7204E07B4A527A9D
:1011700082437A4B5A7270477B49D8310860704776
:1011800001460020754A506820F4404008435060F2
:1011900070470021714A20321170704A82F8201085
:1011A000012802D004280AD104E001216B4A203230
:1011B000117005E00521694A2032117000E000BF7E
:1011C00000BF70476949086070476449096A014374
:1011D000624A11627047654944390860704730B50A
:1011E00000210022002400235C4D6D6805F00C01F5
:1011F00021B1042905D0082923D105E05C4D056003
:1012000022E05B4D05601FE0544D6D6805F47012DF
:10121000524D6D6805F48034022505EB92421CB9ED
:10122000544D554305600BE04C4D6D6805F4003599
:101230001DB1504D5543056002E04D4D55430560CD
:1012400002E04B4D056000BF00BF444D6D6805F0E6
:10125000F0010909484D6B5C0568DD4045603F4D74
:101260006D6805F4E061090A434D6B5C4568DD403B
:1012700085603A4D6D6805F46051C90A3E4D6B5C5E
:101280004568DD40C560354D6D6805F44041890B0A
:101290003A4D6B5CC568B5FBF3F5056130BD29B10E
:1012A0002E4A526902432D4B5A6104E02B4A52697F
:1012B00082432A4B5A61704729B1284A92690243F6
:1012C000264B9A6104E0254A92698243234B9A6136
:1012D000704729B1214AD2690243204BDA6104E008
:1012E0001E4AD26982431D4BDA61704729B11B4AFD
:1012F000D2680243194BDA6004E0184AD26882438C
:10130000164BDA60704729B1144A12690243134B35
:101310001A6104E0114A12698243104B1A61704746
:1013200012494039086070470F49C86470470B493B
:10133000C87170470948406A40F0807007494862A8
:10134000704701460020054A92680A400AB1012010
:1013500000E0002070470149887270470010024089
:101360000000FFF8FFFFF6FE000042428004424208
:1013700000127A0000093D003C0400204C040020CB
:1013800010B50446FB48844209D101218803FFF7C8
:10139000ADFF00214FF48040FFF7A8FF32E0F64890
:1013A000844209D101214804FFF7ADFF00214FF429
:1013B0000030FFF7A8FF25E0F048844209D1012161
:1013C0008804FFF7A0FF00214FF48020FFF79BFF68
:1013D00018E0EB48844209D10121C804FFF793FFCC
:1013E00000214FF40020FFF78EFF0BE0E548844218
:1013F00008D101210805FFF786FF00214FF4801076
:10140000FFF781FF10BD2DE9F04786B005460E4677
:101410000024A24600BFA1460027B08900B100BF4A
:101420002F462C8A4CF6FF700440F08804432C822F
:10143000AC894EF6F3100440B088318908437189B5
:1014400008430443AC81AC8A4FF6FF400440B089A6
:101450000443AC8201A8FFF7C2FEC648874202D10E
:10146000DDF810A001E0DDF80CA0A88900F4004030
:1014700040B10AEBCA0000EB0A1031684900B0FB2A
:10148000F1F807E00AEBCA0000EB0A1031688900A6
:10149000B0FBF1F86420B8FBF0F0040120096421EE
:1014A00001FB1089A88900F4004040B1322000EB14
:1014B000C900B0FBF1F000F00700044308E032205F
:1014C00000EB09106421B0FBF1F000F00F000443C1
:1014D0002C8106B0BDE8F0874FF416510160002161
:1014E0008180C18001810C2141810021818170476F
:1014F00010B502460020108A4FF2FF0318400B88F7
:101500004C8823438C882343CC8823431843108280
:1015100010BD0021018041808180C180704721B1D0
:10152000828942F40052828104E082894DF6FF7381
:101530001A4082817047F0B503460024002600253A
:10154000002040F66A17B94200D100BF1846C1F327
:10155000421401F01F06012707FA06F5012C01D1FC
:101560000C3004E0022C01D1103000E014301AB12C
:1015700007682F43076002E00768AF430760F0BDCC
:101580001AB1838A0B43838202E0838A8B4383826E
:101590007047028A4FF6F0731A400282028A0A43A9
:1015A0000282704782894FF2FF731A4082818289DA
:1015B0000A438281704721B1828942F0020282810E
:1015C00004E082894FF6FD731A4082817047028AD7
:1015D0004FF6DF731A400282028A0A430282704782
:1015E00021B1028A42F48042028204E0028A4BF670
:1015F000FF731A4002827047C1F30802828070476D
:1016000001468888C0F308007047818941F00101D4
:1016100081817047028BD2B20283028B42EA01229F
:1016200002837047028B02F47F420283028B0A43DB
:101630000283704721B1828A42F02002828204E054
:10164000828A4FF6DF731A408282704721B1828A04
:1016500042F01002828204E0828A4FF6EF731A4051
:101660008282704721B1828A42F00802828204E0BD
:10167000828A4FF6F7731A408282704721B18289BD
:1016800042F40042828103E08289C2F30E02828129
:10169000704721B1828A42F40062828204E0828A29
:1016A0004FF2FF731A4082827047828A4FF6FB73B3
:1016B0001A408282828A0A438282704721B1828ADA
:1016C00042F00202828204E0828A4FF6FD731A40E1
:1016D0008282704702460020B1F5007F00D100BF32
:1016E00013880B400BB1012000E00020704701F48B
:1016F0000072B2F5007F00D100BFCA43028070477C
:1017000070B50246002400230025002040F66A162A
:10171000B14200D100BFC1F3421501F01F03012601
:1017200006FA03F3012D02D19689334006E0022D1B
:1017300002D1168A334001E0968A33400C1201260A
:1017400006FA04F41688344013B10CB1012000E00D
:10175000002070BD10B50022002340F66A14A1429B
:1017600000D100BF0A1201249440A3B2DC430480DC
:1017700010BD000000380140004400400048004017
:10178000004C00400050004031490143314A116093
:10179000704770B5002100230F22C47804B32D4C8C
:1017A000246804F4E064C4F5E064210AC1F1040390
:1017B000CA40447804FA03F18478144021430901B3
:1017C000254C0678A155047804F01F050124AC408F
:1017D00005786D11AD0005F1E025C5F8004109E07F
:1017E000047804F01F050124AC401C4D06787611E6
:1017F00045F8264070BD1A4A0A400243154B1B1F8C
:101800001A60704739B1134A121D12680243114B16
:101810001B1D1A6006E00F4A121D126882430D4B11
:101820001B1D1A607047042808D14FF0E021096998
:1018300041F004014FF0E022116107E04FF0E02198
:10184000096921F004014FF0E022116170470000A6
:101850000000FA050CED00E000E400E080E100E0AB
:1018600080FFFF1FF0B5044605ADE0CDEA48C46037
:10187000068387760164C2640572E848036001202C
:10188000F0BD70B504460E46204601F05EF985B203
:101890004FF47A7229462046FEF74DFF70BD2DE9C0
:1018A000FC410746002400250026DB4ADC4801688D
:1018B000DC4800F0AEFA05462A46DA49204600F038
:1018C000F9FF0646D8A001F01FF8DC4AD4480168A9
:1018D000D44800F08FFD022819D1D148D14A694679
:1018E000036801A800F044FB012802D19DF8000024
:1018F00028B14FF47A71D2A0FFF7C3FF08E04FF48C
:101900007A71D6A0FFF7BDFF0120BDE8FC8100BFC2
:10191000204600F0F4FF0020F7E710B5044620460B
:10192000FEF729FE10BD88B005460E4617464FF05B
:1019300000080024A146BA480168BA4801F0B4F989
:10194000B54AB7480168B74800F063FA0446B3489F
:1019500005600246CDE9056707CA02AB07C3002050
:101960000090AF4A01901268111BAE4A1019002373
:101970001A4600F020FE0444A94A1268111BA94A25
:10198000101900F05DFB04442246A649404600F0D1
:1019900091FF8146A14505D14FF47A71B5A0FFF7BB
:1019A00070FF04E04FF47A71BBA0FFF76AFF07E015
:1019B0004FF47A70FFF7B1FF4FF47A70FFF7ADFF85
:1019C000F6E72DE9F04186B0044600260027B04630
:1019D0000125002005909148046005A88F49012247
:1019E0002B46CDE90021029000228D4801688D48E8
:1019F00000F0BCFE07463A468A49304600F05AFFDE
:101A000080468E4A86480168864800F0F3FC092823
:101A100013D183480068834902AB03AACDE90010C3
:101A2000012104A800F0FBFE8046029820B1A1A08D
:101A3000029900F069FF02E000E000E000BF3046DC
:101A400000F05DFF002006B0BDE8F0812DE9F04117
:101A50008EB0804600240025002601279BA06F49F8
:101A600008601FE0754A6E4801686E4800F0C2FCCD
:101A7000032817D16A4800686A4909AA08ABCDE96A
:101A80000132CDE9031005A80AAB0BAA0CA90090FE
:101A90000DA800F0EFFA06468FA0DDE9082100F05E
:101AA00033FF00BF924800680028DBD000200EB052
:101AB000BDE8F08170B50446002500262046FFF7FA
:101AC0002CFF57480168574800F0C3FA06463246D3
:101AD0005449284600F0EEFE4FF47A70FFF71DFFE0
:101AE000564A4F4801684F4800F084FC0D2806D143
:101AF0004FF47A717FA0FFF7C4FE012070BD4FF450
:101B00007A717FA0FFF7BDFE00BF284600F0F7FE08
:101B10000020F3E788B0002700BF002007900024D2
:101B2000804601204FF47A71042278A3CDE9002188
:101B300002907AA27CA17FA0FFF794FE0120FFF71C
:101B4000AEFE00BF00BF7DA5284600F0FEFF0646A2
:101B50004FF47A70FFF7AEFF31480168314801F069
:101B6000A3F82D4A2E4801682E4800F052F9044689
:101B700075A02A4908600A46CDE9055607CA02AB96
:101B800007C300200090264A01901268111B254AC5
:101B9000101900231A4600F00EFD0444204A126872
:101BA000111B204A101900F04BFA044422461D492B
:101BB000384600F07FFE8046A0450DD10FF29C19FB
:101BC000484600F0C2FF1FFA80FA4FF47A7251467D
:101BD0004846FEF7B0FD0DE00FF2A019484600F0B0
:101BE000B4FF1FFA80FA4FF47A7251464846FEF766
:101BF000A2FD00BF0FE04FF47A70FFF78EFE4FF4A6
:101C00007A70FFF78AFE4FF47A70FFF786FE4FF482
:101C10007A70FFF74FFFEEE7580400209C05002084
:101C200054040020D404002053656E74204D515498
:101C30005420636F6E6E6563740A0000D928000833
:101C4000556E61626C6520746F206275696C6420EA
:101C50004D515454436F6E6E656374004D5154542E
:101C6000436F6E6E6563746564204F4B210D0A0DE2
:101C70000A0000000D0A5F776973646F6E20537568
:101C8000636365737366756C6C79207075626C69DB
:101C900073686564210D0A000D0A5F776973646FCC
:101CA0006E205075626C697368206661696C65644A
:101CB000210D0A006772616E74656420716F732074
:101CC000213D20302C2025640A00000070756274CC
:101CD0006F706963000000006D6573736167652054
:101CE0006172726976656420252E2A730A000000ED
:101CF0005004002050696E674F4B0D0A0000000031
:101D00004F4F505321210D0A000000006D79746F70
:101D10007069635F776973646F6E000061646D69F9
:101D20006E3132330000000061646D696E574953B3
:101D3000444F4E004F56535F000000006D797061B4
:101D4000796C6F61640000006D79746F7069635F16
:101D5000776973646F6E31323300000077697364A2
:101D60006F6E205375636365737366756C6C792051
:101D70007075626C69736865640D0A005075626CF9
:101D8000697368206661696C65642066726F6D2096
:101D9000776973646F6E0D0A0000000070B5044629
:101DA0000025207A032801D10C2503E0207A04289D
:101DB00000DB0A25D4E90412E06800F0EEFA801C8A
:101DC0000544E07E68B1D4E90A12606A00F0E5FAE1
:101DD000861CD4E90D12206B00F0DFFA3044801C21
:101DE0000544206C08B9A06C30B1D4E91112206C04
:101DF00000F0D3FA801C0544E06C08B9606D30B186
:101E0000D4E91412E06C00F0C8FA801C054428469E
:101E100070BD2DE9FE4305460E461446029500208E
:101E20000190009000274FF0FF382046FFF7B6FFE3
:101E30000746814600F001FAB04202DD6FF001086A
:101E400093E000208DF80400019820F0F00010309D
:101E500001909DF8041002A800F028FA3946029873
:101E600000F092F9029908440290207A052802D0E5
:101E7000207A042804D17BA102A800F035FA08E0FA
:101E8000207A032804D179A102A800F02DFA00E0FD
:101E90006BE0217A02A800F009FA00208DF800001A
:101EA000A17E009861F341000090E07E08B101211D
:101EB00000E00021009861F3820000900098C0F3D8
:101EC000800058B194F83D10009861F3C400009070
:101ED00094F83C10009861F345100090206C08B90C
:101EE000A06C20B1009820F0800080300090E06C61
:101EF00008B9606D20B1009820F04000403000909B
:101F00009DF8001002A800F0D1F9218B02A800F082
:101F1000D3F902A8D4E90423E16800F002FAE07ED4
:101F200058B102A8D4E90A23616A00F0FAF902A8BC
:101F3000D4E90D23216B00F0F4F90098C0F3C01030
:101F400028B102A8D4E91123216C00F0EAF9009825
:101F5000C0F3801028B102A8D4E91423E16C00F08A
:101F6000E0F90298A0EB050800BF4046BDE8FE83FB
:101F70002DE9FF4704460D4616469946002003907A
:101F8000029600278046009002A800F088F98DF89C
:101F90000C000398C0F30310022800D01FE001A931
:101FA000029800F064F98046029908440290DDE945
:101FB000011047180298381A022800DA0FE002A828
:101FC00000F06DF98DF80000009800F0010020701D
:101FD00002A800F064F928704FF0010800BF4046E5
:101FE00004B0BDE8F0872DE9FC4104460D461646D5
:101FF000002001904FF0FF3800940027384600F091
:102000001CF9A84202DD6FF0010816E000208DF8EF
:102010000400019866F3071001909DF804106846CB
:1020200000F044F93946009800F0AEF800990844F1
:1020300000900098A0EB040800BF4046BDE8FC817A
:1020400070B504460D460E2229462046FFF7CBFF09
:1020500070BD70B504460D460C2229462046FFF798
:10206000C2FF70BD4D515454000000004D514973E2
:10207000647000002DE9FF5F06460C46174698463F
:10208000DDE90FABDDF83890002003901198029045
:10209000002500200190009002A800F000F98DF8C2
:1020A0000C000398C0F30310032800D032E003981B
:1020B000C0F3C00030700398C0F341002060039863
:1020C00000F0010038706946029800F0D0F80190E5
:1020D0000299084402900099029845182A4602A9DC
:1020E000484600F03DF910B10298281A00D511E0D9
:1020F0002068002804DD02A800F0C4F8A8F8000059
:102100000298281ACBF800000298CAF800000120B3
:10211000019000BF019804B0BDE8F09F2DE9FE4F8B
:1021200004460D4616461F46DDF830A000200290FA
:1021300001978046814601A800F0B1F88DF80800AB
:102140000298C0F3C00028700298C0F303102070FA
:102150006946019800F08BF8814601990844019086
:10216000DDE9001000EB01080198A8EB000002284F
:1021700000DA06E001A800F085F830804FF0010990
:1021800000BF4846BDE8FE8F30B50246002300BFC1
:102190000846CD1701EB5565ED11A1EBC515ECB265
:1021A000CD1701EB5565E911002901DD44F08004EC
:1021B00018465B1C14540029EADC184630BD2DE992
:1021C000F84305460C46012600270020206000BF8A
:1021D0004FF0FF38781C0746042801DD00BF17E0E8
:1021E00001216846A8478046B8F1010F00D00FE0F2
:1021F0009DF8001001F07F01206801FB06002060BF
:10220000F6019DF8000000F080000028E0D100BF3A
:102210003846BDE8F88301460020802901DA012014
:102220000AE0B1F5804F01DA022005E0B1F5001FA8
:1022300001DA032000E00420704700B50346184689
:10224000FFF7E9FF591C084400BD10B50246002302
:1022500009E0CF48006800781070CD480068401C45
:10226000CB4C20605B1C8B42F3DB084610BD70B585
:1022700004460D46C64804602946AFF23100FFF718
:102280009EFF70BD30B501460A68537814784FF44C
:10229000807505FB04300B689B1C0B6030BD01464C
:1022A0000A6810780A68521C0A6070470268117048
:1022B0000268521C0260704710B50A46CB1701EB4A
:1022C00013631B0A046823700268521C02600A46EA
:1022D000CB1701EB13631B12A1EB032304682370DC
:1022E0000268521C026010BD70B504460E463046AE
:1022F00000F02BFC054629462046FFF7DDFF2A4665
:102300003146206800F08BFC20682844206070BDB6
:1023100010B501464A780B784FF4807404FB032013
:1023200010BD1FB50446029800280DDD2046029915
:10233000FFF7C2FFDDE90221206800F070FC206891
:102340000299084420600AE0019820B120460199D2
:10235000FFF7CAFF03E000212046FFF7ADFF1FBDD6
:10236000F0B505460C46164600272068301A0128AD
:102370000FDD2046FFF786FF686020686968084423
:10238000B04206D82168A9602068696808442060C6
:102390000127002028603846F0BD37B5002400989A
:1023A00020B1009800F0D1FB044600E0019C2046DB
:1023B0003EBD2DE9F04104460E460027B846206890
:1023C00028B12568206800F0C0FB074601E0A56839
:1023D0006768304600F0B9FB8046474508D13A4669
:1023E0003146284600F0D0FB10B90120BDE8F0814D
:1023F0000020FBE72DE9FC4104460F4615464FF04F
:10240000FF38002001900026009001212046A847B7
:10241000012800D01EE0012669462846FFF7CFFEBE
:10242000601C0099FFF7B0FE064400983044B842A3
:1024300000DD0FE0009830B1A0190099A84700997D
:10244000884200D006E020788DF804000198C0F39F
:10245000031800BF4046BDE8FC81F8B504464FF0C4
:10246000FF36206918B90120A0600020E06000BF9D
:102470002069042800DB22E001226946D4E900300B
:1024800098470546401C00B919E00DB9002616E032
:102490002069401C20619DF8001001F07F01D4E903
:1024A000022001FB0200E060A068C001A0609DF86E
:1024B000000000F080000028DAD1266900BF304615
:1024C000F8BD2DE9F84306460F4614464FF0FF3895
:1024D00000200090207D30B1012817D002282FD095
:1024E0000020207500BF01223146D4E90030984712
:1024F0000546401C00B946E015B90020BDE8F88348
:1025000000202061207D401C207500BF2046FFF781
:10251000A4FF0546401C00B935E00DB90020EDE7E9
:10252000701CE168FFF730FE401C2061D4E9030114
:102530000844B84200DD26E0207D401C207500BF25
:10254000E068B8B1D4E9032C0CEB0601D4E9003003
:1025500098470546401C00B915E00DB90020CDE7AD
:10256000E068401BE060206928442061E06808B111
:102570000020C3E730788DF800000098C0F30318FE
:1025800000BF00BF00BF002020754046B6E7000036
:10259000B00400207FB50546089E002401A807C8A6
:1025A000FFF7FBFE801C30440444002D00DDA41C1A
:1025B000204604B070BD2DE9F04F87B005460F46A8
:1025C00090461C46DDE915B6DDE9109A0695002017
:1025D0000590049003900096204612A90EC9FFF7BB
:1025E000D9FF04900290FFF728FEB84203DD6FF098
:1025F0000100039033E0059820F0F00030300590A2
:10260000059868F3C3000590059864F342000590AF
:10261000059869F3000005909DF8141006A8FFF7CF
:1026200045FE04990698FFF7AFFD06990844069009
:1026300006A812A90EC9FFF774FE002C03DD51464F
:1026400006A8FFF739FE32465946069800F0E7FA29
:102650000698304406900698401B039000BF0398EC
:1026600007B0BDE8F08F2DE9FC4704460E4615463D
:102670001F46DDF8288000200190814600944FF02D
:10268000020A042E02DA6FF0010924E0019865F3D2
:1026900007100190019867F3C3000190062D01D146
:1026A000012100E00021019861F3420001909DF8B2
:1026B00004106846FFF7FAFD51460098FFF764FDE5
:1026C00000990844009041466846FFF7F5FD0098E0
:1026D000A0EB040900BF4846BDE8FC87F8B50546F5
:1026E0000E46144600230422314628460094FFF784
:1026F000BAFFF8BDF8B505460E461446002305227C
:10270000314628460094FFF7AEFFF8BDF8B50646FF
:102710000F4614461D46234606223946304600958C
:10272000FFF7A1FFF8BDF8B505460E461446002395
:102730000722314628460094FFF795FFF8BD2DE9A2
:10274000F04105460E46022700240AE004EB44004F
:1027500006EB800393E80700FFF71FFEC01C074449
:10276000641CAC42F2DB3846BDE8F0812DE9FF5F26
:1027700005460E4617469846DDE90E9A0395002059
:10278000029001900090002451464846FFF7D7FF81
:1027900083460190FFF751FDB04202DDA01E00907C
:1027A00039E000208DF80800029820F0F000803019
:1027B0000290029867F3C3000290029820F006008E
:1027C000801C02909DF8081003A8FFF76FFD019987
:1027D0000398FFF7D9FC039908440390414603A8E6
:1027E000FFF76AFD002410E0109810F824B004EB05
:1027F00044000AEB800C03A89CE80E00FFF791FD53
:10280000594603A8FFF752FD641C4C45ECDB0398C6
:10281000401B009000BF009804B0BDE8F09F2DE978
:10282000FE4F06460D4614461F46DDE90C9B002070
:102830000290CDF804908046824601A8FFF72FFD54
:102840008DF808000298C0F30310092800D02EE08C
:1028500069460198FFF70BFD8246019908440190F3
:10286000DDE9001000EB01080198A8EB0000022848
:1028700000DA1CE001A8FFF705FD3080002D13DD14
:10288000002020600DE02068A84202DD4FF0FF3AF2
:102890000DE001A8FFF703FD2268511C216047F8F5
:1028A000220001984045EED34FF0010A00BF504688
:1028B000BDE8FE8F2DE9F04107460D46144611494B
:1028C000C8698047A1B24FF47A722846FDF7D2FF5B
:1028D00006462046BDE8F08170B505460C46A1B21B
:1028E00008484FF47A72836828469847064620467F
:1028F00070BD034600207047024600207047014625
:1029000000207047180000200FB4044910B503AA36
:10291000029800F081FA10BC5DF814FBFC05002061
:102920000FB41CB5084B06AA7B4469460090059875
:1029300000F043FA04460020694600F051FA2046B0
:102940001CBC5DF814FB0000B504000070B50C461B
:102950000546012A05D02878800600D5EA690023BB
:1029600002E0012305E05B1C934202D2E05C0028F8
:10297000F9D1A869E618C01AA861286A1844286223
:102980002846AFF3008004E0D5E9012114F8010BDB
:102990009047B442F8D32846AFF3008070BD0000E2
:1029A0002DE9F0410646002410687529314616A528
:1029B00010D0AFF30080002802DA404213A507E0F0
:1029C00031688A0701D512A502E0490704D511A58F
:1029D000012401E0AFF3008000210A2206F1240760
:1029E00009E0B0FBF2FCB0FBF2F302FB1C0030305C
:1029F00078541846491C0028F3D123462A4630460D
:102A0000BDE8F04100F07AB9000000002D000000A0
:102A10002B000000200000002DE9F0474FF0000AD5
:102A200089460446C0F820A02046E168884700286F
:102A300076D0252806D0D4E901219047206A401C91
:102A40002062F1E7E168204600258847C4F81CA011
:102A500006460027C4F818A02A2E09D0304600F0F8
:102A600029FF38B304EB8708303EC8F8186019E036
:102A700059F8041B204604EB87029161E1688847FE
:102A8000012F064618D1E069002820DA25F020053C
:102A90001DE0D8F8180000EB800006EB400030384D
:102AA000C8F818002046E1688847064600F002FF93
:102AB0000028EED1012F0AD02E2E08D12046E16841
:102AC00088477F1C0646022F45F02005C4DBA0691D
:102AD000002803DA404245F00105A061E80701D073
:102AE00025F01005B6B1A6F14100192802D820360C
:102AF00045F400654A463146204625604D46FDF7BF
:102B000071FB58B1012806D0ED1D25F0070000F13A
:102B1000080989E704E005F1040985E730468AE7FA
:102B2000206ABDE8F08730B505460B462A4613F803
:102B3000014B12F8010B08B1A042F8D01CB10028DB
:102B400002D06D1CF1E7284630BD10B5431C02E0F1
:102B500010F8011B71B18107FAD14FF0013202C8A0
:102B60008C1A8C4314EAC211F9D0C01A0A0603D099
:102B7000C01E10BDC01A10BD0A0401D0801E10BDB9
:102B80000902FCD0401E10BD40EA010370B59B074E
:102B90002ED14FF00136042A2AD308C810C99D1B34
:102BA0009D43121F15EAC61517D0D8B2E1B2401ADC
:102BB00050EA056110D198B2A1B2401A50EA05411D
:102BC0000AD123F07F4024F07F41401A50EA0521CA
:102BD00002D1180EA0EB146070BDA342DBD018BA6E
:102BE00021BA884201D9012070BD4FF0FF3070BD7D
:102BF0000AB9002070BD10F8013B11F8014B63B118
:102C0000A3420AD1521E08D010F8013B11F8014B23
:102C10001BB1A34201D1521EEDD1181B70BD032A76
:102C200040F2308010F0030C00F0158011F8013BE9
:102C3000BCF1020F624498BF11F801CB00F8013BD0
:102C400038BF11F8013BA2F1040298BF00F801CB94
:102C500038BF00F8013B11F0030300F0EF80083AA1
:102C6000C0F0088051F8043B083A51F804CBA0E8C2
:102C70000810F5E7121D5CBF51F8043B40F8043B17
:102C8000AFF30080D20724BF11F8013B11F801CB4C
:102C900048BF11F8012B24BF00F8013B00F801CB1D
:102CA00048BF00F8012B70474FF0000200B51346F3
:102CB00094469646203922BFA0E80C50A0E80C505C
:102CC000B1F12001BFF4F7AF090728BFA0E80C500D
:102CD00048BF0CC05DF804EB890028BF40F8042B06
:102CE00008BF704748BF20F8022B11F0804F18BF73
:102CF00000F8012B70477047704770472DE9F04787
:102D00000D4699469246044600F12408016888065B
:102D100004D5E06921F01001216000E00120A84203
:102D200001DD471B00E00027A1697A1902EB0900C9
:102D3000081AA0612078C00602D42046AFF30080B4
:102D4000002608E0D4E901211AF806009047206A1D
:102D5000401C761C20624E45F4DB2078C0060AD564
:102D60002046AFF3008006E0D4E9012130209047EF
:102D7000206A401C2062381EA7F10107F4DC07E03E
:102D8000D4E9012118F805009047206A401C206210
:102D9000281EA5F10105F3DC2046AFF30080207862
:102DA000000602D50220BDE8F0870120FBE7000005
:102DB00001694A1C02610878704700B58FB0CDE9FF
:102DC00001310021059105497944CDE903101146EF
:102DD0006846FFF721FE0FB000BD0000E5FFFFFFD2
:102DE0000A6802F8010B0A60704710B5436913B115
:102DF000AFF3008001E0FFF7A9FD012010BD1278BC
:102E000000F124010A7000224A700122EDE71168E6
:102E10004FF0FF32E9E70000074B70B50D467B44E9
:102E2000FFF7CBFF0446284600F03AF810B14FF008
:102E3000FF3070BD204670BDA10A000010B5203AD9
:102E4000C0F00B80B1E81850203AA0E81850B1E863
:102E50001850A0E81850BFF4F5AF5FEA027C24BF19
:102E6000B1E81850A0E8185044BF18C918C0BDE810
:102E700010405FEA827C24BF51F8043B40F8043BD9
:102E800008BF7047D20728BF31F8023B48BF11F88E
:102E9000012B28BF20F8023B48BF00F8012B7047E8
:102EA000007B00F08000704710B542485421FFF7C6
:102EB000FBFE41485421FFF7F7FE40485421FFF73D
:102EC000F3FE3F493B483C4A3F4B08603D490A609E
:102ED0003A491960531C0365481C106501200865B8
:102EE0003B48344A39A1784400F008FA20B9384800
:102EF00078440A3800F0A7FA37482F4A35A17844B9
:102F000000F0FCF920B9344878440A3800F09BFA04
:102F100032482A4A2FA1784400F0F0F920B92F480E
:102F200078440A3800F08FFA40232248DC00002160
:102F3000224600F0BFF920B125487844543800F00B
:102F400082FA1D4822464023002100F0B3F920B147
:102F500021487844543800F076FA18482246102365
:102F6000002100F0A7F9002806D01C487844BDE8ED
:102F70001040563800F067BA10BD104870B5006DAB
:102F800020F001040B4800F02FFA0B4800F02CFA57
:102F90000A4800F029FA09E0206D20F001052046DA
:102FA00000F022FA204600F073F82C46002CF3D1F2
:102FB00070BD0000A8050020FC0500205006002080
:102FC000B4040020B8040020BC04002072000000FB
:102FD000F209000077000000DE090000CA090000C5
:102FE0000EB5CDE90001FFF7B0FD02906946012062
:102FF000ABBE0EBD08B5694600900220ABBE08BD51
:103000001FB58DE8070069460520ABBE04B010BDB2
:103010001FB58DE80F0069460620ABBEF6E708B580
:10302000694600900920ABBE08BD1CB5CDE9000182
:1030300069460A20ABBE1CBD704708B569460090C2
:103040000C20ABBE08BD754600F004FAAE46050084
:103050006946534620F00700854618B020B5FDF7B5
:10306000FDFDBDE820404FF000064FF000074FF097
:1030700000084FF0000B21F00701AC46ACE8C00996
:10308000ACE8C009ACE8C009ACE8C0098D4670479F
:1030900070B50446051F00F0E3F90068002C14BF6A
:1030A000446870BD002C18BFAC423CBF2046646829
:1030B000F8D301680A18AA4218BF456003D12A68EC
:1030C00005461144016028684119A1421CBF6C608B
:1030D00070BD6168696021680844286070BD2DE991
:1030E000F04705460C46C86820F4201040F48000E4
:1030F000C860800602D5084600F0FFFAE06841F299
:1031000082014FF0FF390140022903D0204600F030
:103110009DFAB5E000F42041B1F5004F0FD1C00396
:1031200006D56168E06A884200D80846606006E01B
:103130002069E06260606069FFF77FFFA061A068BE
:103140000022EEB200280DDAE1688B050AD4C043F4
:10315000A06041F490302260E0606068411C6160D2
:103160000670A5E0E0689046226040F40050E06000
:10317000206968BB6069FFF752FF012704F124054D
:10318000A0B1A08910F4407F08D0E06900F0B3F945
:10319000206118B1E06840F4006016E0E761256145
:1031A000E06820F4407040F480600EE0E06900F0D8
:1031B000A2F900282061F1D0E06840F4006010F42A
:1031C000407FE06002D140F48070E0602069606080
:1031D000E06825696FF0010AC1051FD56168E06AE2
:1031E000884200D80846411B04D02246284600F0F9
:1031F00037FAF0BBE068010203D5E562C4E9015883
:1032000054E0691CE1626160E16940F48030491E6C
:10321000C4E9021030462E70BDE8F087010202D5E5
:1032200000F480320AE06068411C61600670E0686A
:103230000A2E40F48030E06006D00022E16A606827
:10324000814203D90B4602E00122F7E70346A78932
:103250005B1B7F0503D4E7699F4200DDE2B1814239
:1032600000D80146E5620F1AC4E90158002B09DDB8
:1032700000E005E022461946284600F0F1F908B1C1
:103280004846C9E747B1A069E5626560C01BA06117
:10329000E06840F01000E060E068000208D5616876
:1032A000A069E562491B08446560A0615046B3E728
:1032B0003046B1E770B5C468A50713D0650211D4D4
:1032C000B2F5807F09D0B2F5007F06D0B2F5806FED
:1032D00008D1012300F1240106E05D1E6FF07F4656
:1032E000B54201D3012070BD0161C361416024F486
:1032F00070611143C160002070BD00002DE9F041F4
:103300000C4607461646104600F06EF82078611C01
:1033100061280AD0722802D077283CD102E001252A
:10332000002405E00225042402E0082448F20205F6
:1033300011F8010B2B2806D0622809D011F8010CD6
:1033400074280AD00BE045F0030544F00204EFE7CF
:1033500045F0040544F00104EAE744F0100438465F
:103360002146FFF73DFE411C15D0002131617160FF
:103370004FF40071F560F1617061200704D53046AB
:103380000222002100F0E6F8306D40F001003065C7
:103390003046BDE8F0810020FBE72DE9F0410D4605
:1033A0000646104C206DC10704D0410804D020F01F
:1033B0000104F7E722460EE0542000F09CF80700D5
:1033C0000ED0206D47F00101084354212065384696
:1033D000FFF76AFC3A4629463046BDE8F0418DE7E2
:1033E0000020D6E7A80500202DE9F04704464FF05D
:1033F00000094FF0FF37C568D4E90486A80707D055
:10340000204600F057F93046FFF7F4FD002802DAB5
:103410003846BDE8F087280502D54046FFF738FE5C
:103420004C212046FFF740FC206D20F00100206574
:103430004846EEE710B50446AFF300802046BDE8ED
:103440001040FCF7ECBE10B500F07EF9BDE810406E
:1034500000F074B900487047A406002070470000CF
:1034600000487047AC0600207047704770477047AF
:1034700038B504460A4600206946AFF300800028AC
:1034800008BF38BD02460099204600F084F90120AB
:1034900038BD012000F0D3B9F8B5AFF30080054680
:1034A00000200C46102000BF0646A819A0420DD9E6
:1034B000324669460020AFF30080070008BF00F0E5
:1034C000BEF90098A04218BF0546C419FFF7C8FF0F
:1034D00005600746F01D20F007004619284600F059
:1034E00053F9B44208BFF8BDA21B31463868BDE8A5
:1034F000F84000F050B970B50646FFF7B1FF056817
:1035000006F10B0020F00704B4429CBF002070BD00
:103510002B466A68BAB11068A04210D304F10801C2
:1035200088423CBF5068586007D351681019416009
:103530001168091B016058601460101D70BD1346AE
:103540005268002AE7D121462846FFF791FF00285C
:10355000DED170BD2DE9F041044616460D4647699F
:10356000007B80072ED03846FFF759FD50BB3EB395
:10357000012E02D0022E25D104E0204600F025F9CC
:1035800005441DE03846FFF758FDE168002841F08A
:103590001001E16005DA204600F058F80120BDE88E
:1035A000F081C9030BD56268E16A914200D81146E7
:1035B000A26911442269891A814200DD0846054446
:1035C000002D01DA0220EAE7E16A6068E2688142E0
:1035D00006D29103E06203D522F4003141F01002DB
:1035E000A6690027AE4213DCE16A814201D90B468D
:1035F00000E0034603EB060C2369ACEB030CAC457F
:1036000006DD814201D98C4600E084469C4505D107
:10361000A760276042F02000A5620DE0AD1BE669BF
:10362000AE1B8142A66000D90846C01A281A206045
:103630005819606022F0200003490840E060002033
:1036400084F84870ABE70000BFCFD7FFC16821F412
:10365000001141F08001C16000218160016070476C
:103660002DE9F047814614460E464FF0FF383248A8
:10367000D5685769054209D03846A169FFF7D5FCDE
:10368000002811DB2C48C0430540E5602B4632463C
:1036900049463846FFF7B4FCA16920F00042B21A4F
:1036A00011440028A16103D02046FFF7CFFF404618
:1036B000BDE8F08770B504460569C06A6168884254
:1036C00000D80846E16821F42011E160C90312D551
:1036D000A84208D02246411B2846FFF7C1FF10B17F
:1036E0004FF0FF3070BD0020E562C4E90150E06892
:1036F00020F48030E060002070BD10B50446C06842
:1037000020F02000E060A16AA06988420DD0204628
:10371000FFF7D0FFE06820F4405040F01000E06078
:10372000A06AA0612069E062606044F24001E06844
:103730008843E06010BD000010000200002801D0A6
:1037400000F01CB87047000010B5014602A000F060
:103750005DF8012010BD00005349475254524544C2
:103760003A2052656469726563743A2063616E271A
:1037700074206F70656E3A20000000000149182027
:10378000ABBEFEE72600020000210160C0E9011087
:10379000704710207047034640688C46002818BFC9
:1037A00088423CBF03464068F8D3186818448842F2
:1037B00007D00CF1030020F00700001D411A521A37
:1037C0000146081D0A60FFF763BC10B50146C268D8
:1037D000900703D0900607D5886A0AE000F03EF80B
:1037E00001210160881E10BD8B69486818440B696F
:1037F000C01A91F848301BB191F84910401A10BD19
:103800001103FCD50028FADD401E10BD70B5054639
:103810000C460A2000E06D1C00F018F835B128783D
:103820000028F8D102E0641C00F010F814B12078F0
:103830000028F8D1BDE870400A2000F007B810B5A4
:1038400000F010F8BDE81040FFF778BF08B56946F2
:103850008DF800000320ABBE08BD00000048704793
:10386000A406002010B5012805D0002103A0FFF711
:10387000CDFF012010BD09A1F8E7000053494752D0
:10388000544D454D3A204F7574206F662068656130
:1038900070206D656D6F7279000000003A204865F8
:1038A0006170206D656D6F727920636F72727570D3
:1038B0007465640030380A2801D201207047002066
:1038C00070478A68002A01DCFFF709BC521E8A6033
:1038D0004A68C0B2531C4B60107070473A74740051
:1038E0003A7474003A74740041542B434950535451
:1038F0004152543D22544350222C226D7174742D38
:10390000322E6F6D6E69766F6C746169632E636FB2
:103910006D222C2231383833220D0A003C39000840
:1039200000000020C00400006C010008903900086D
:10393000C004002048080000C80100081184A24A01
:103940000440090102030406070809139D0914082D
:103950005F071B088F048113BD061B0803101AADF7
:103960000801FF01FF01FF01FF4113E83842082D64
:103970000102030404380806070809020406143289
:10398000C8454D515443F204123C2A011C024857C9
:0400000508000131BD
:00000001FF
